{
  "contractName": "AcademicCredentialVerifier",
  "abi": [
    {
      "constant": true,
      "inputs": [
        {
          "internalType": "address",
          "name": "",
          "type": "address"
        }
      ],
      "name": "academicCredentials",
      "outputs": [
        {
          "internalType": "string",
          "name": "degreeType",
          "type": "string"
        },
        {
          "internalType": "string",
          "name": "institutionName",
          "type": "string"
        },
        {
          "internalType": "uint256",
          "name": "dateOfIssuance",
          "type": "uint256"
        }
      ],
      "payable": false,
      "stateMutability": "view",
      "type": "function"
    },
    {
      "constant": false,
      "inputs": [
        {
          "internalType": "string",
          "name": "_degreeType",
          "type": "string"
        },
        {
          "internalType": "string",
          "name": "_institutionName",
          "type": "string"
        },
        {
          "internalType": "uint256",
          "name": "_dateOfIssuance",
          "type": "uint256"
        }
      ],
      "name": "addAcademicCredential",
      "outputs": [],
      "payable": false,
      "stateMutability": "nonpayable",
      "type": "function"
    },
    {
      "constant": true,
      "inputs": [
        {
          "internalType": "address",
          "name": "_address",
          "type": "address"
        }
      ],
      "name": "getAcademicCredential",
      "outputs": [
        {
          "internalType": "string",
          "name": "",
          "type": "string"
        },
        {
          "internalType": "string",
          "name": "",
          "type": "string"
        },
        {
          "internalType": "uint256",
          "name": "",
          "type": "uint256"
        }
      ],
      "payable": false,
      "stateMutability": "view",
      "type": "function"
    },
    {
      "constant": true,
      "inputs": [
        {
          "internalType": "address",
          "name": "_address",
          "type": "address"
        }
      ],
      "name": "verifyAcademicCredential",
      "outputs": [
        {
          "internalType": "bool",
          "name": "",
          "type": "bool"
        }
      ],
      "payable": false,
      "stateMutability": "view",
      "type": "function"
    }
  ],
  "bytecode": "0x608060405234801561001057600080fd5b50610986806100206000396000f3fe608060405234801561001057600080fd5b506004361061004c5760003560e01c80631eaeaa31146100515780636c697c1114610181578063c977826b146102dd578063f39ab1b114610339575b600080fd5b6100936004803603602081101561006757600080fd5b81019080803573ffffffffffffffffffffffffffffffffffffffff169060200190929190505050610469565b604051808060200180602001848152602001838103835286818151815260200191508051906020019080838360005b838110156100dd5780820151818401526020810190506100c2565b50505050905090810190601f16801561010a5780820380516001836020036101000a031916815260200191505b50838103825285818151815260200191508051906020019080838360005b83811015610143578082015181840152602081019050610128565b50505050905090810190601f1680156101705780820380516001836020036101000a031916815260200191505b509550505050505060405180910390f35b6102db6004803603606081101561019757600080fd5b81019080803590602001906401000000008111156101b457600080fd5b8201836020820111156101c657600080fd5b803590602001918460018302840111640100000000831117156101e857600080fd5b91908080601f016020809104026020016040519081016040528093929190818152602001838380828437600081840152601f19601f8201169050808301925050505050505091929192908035906020019064010000000081111561024b57600080fd5b82018360208201111561025d57600080fd5b8035906020019184600183028401116401000000008311171561027f57600080fd5b91908080601f016020809104026020016040519081016040528093929190818152602001838380828437600081840152601f19601f820116905080830192505050505050509192919290803590602001909291905050506105c3565b005b61031f600480360360208110156102f357600080fd5b81019080803573ffffffffffffffffffffffffffffffffffffffff169060200190929190505050610674565b604051808215151515815260200191505060405180910390f35b61037b6004803603602081101561034f57600080fd5b81019080803573ffffffffffffffffffffffffffffffffffffffff1690602001909291905050506106c2565b604051808060200180602001848152602001838103835286818151815260200191508051906020019080838360005b838110156103c55780820151818401526020810190506103aa565b50505050905090810190601f1680156103f25780820380516001836020036101000a031916815260200191505b50838103825285818151815260200191508051906020019080838360005b8381101561042b578082015181840152602081019050610410565b50505050905090810190601f1680156104585780820380516001836020036101000a031916815260200191505b509550505050505060405180910390f35b6000602052806000526040600020600091509050806000018054600181600116156101000203166002900480601f0160208091040260200160405190810160405280929190818152602001828054600181600116156101000203166002900480156105155780601f106104ea57610100808354040283529160200191610515565b820191906000526020600020905b8154815290600101906020018083116104f857829003601f168201915b505050505090806001018054600181600116156101000203166002900480601f0160208091040260200160405190810160405280929190818152602001828054600181600116156101000203166002900480156105b35780601f10610588576101008083540402835291602001916105b3565b820191906000526020600020905b81548152906001019060200180831161059657829003601f168201915b5050505050908060020154905083565b6105cb61088b565b6040518060600160405280858152602001848152602001838152509050806000803373ffffffffffffffffffffffffffffffffffffffff1673ffffffffffffffffffffffffffffffffffffffff16815260200190815260200160002060008201518160000190805190602001906106439291906108ac565b5060208201518160010190805190602001906106609291906108ac565b506040820151816002015590505050505050565b6000806000808473ffffffffffffffffffffffffffffffffffffffff1673ffffffffffffffffffffffffffffffffffffffff1681526020019081526020016000206002015414159050919050565b60608060006106cf61088b565b6000808673ffffffffffffffffffffffffffffffffffffffff1673ffffffffffffffffffffffffffffffffffffffff168152602001908152602001600020604051806060016040529081600082018054600181600116156101000203166002900480601f0160208091040260200160405190810160405280929190818152602001828054600181600116156101000203166002900480156107b15780601f10610786576101008083540402835291602001916107b1565b820191906000526020600020905b81548152906001019060200180831161079457829003601f168201915b50505050508152602001600182018054600181600116156101000203166002900480601f0160208091040260200160405190810160405280929190818152602001828054600181600116156101000203166002900480156108535780601f1061082857610100808354040283529160200191610853565b820191906000526020600020905b81548152906001019060200180831161083657829003601f168201915b505050505081526020016002820154815250509050806000015181602001518260400151829250819150935093509350509193909250565b60405180606001604052806060815260200160608152602001600081525090565b828054600181600116156101000203166002900490600052602060002090601f016020900481019282601f106108ed57805160ff191683800117855561091b565b8280016001018555821561091b579182015b8281111561091a5782518255916020019190600101906108ff565b5b509050610928919061092c565b5090565b61094e91905b8082111561094a576000816000905550600101610932565b5090565b9056fea265627a7a723158204a7f2d2bd15bc77f507efbb5aebd318ac7fa4aa7259383b9943ea32a3759bf1b64736f6c63430005100032",
  "source": "pragma solidity ^0.5.0;\r\n\r\ncontract AcademicCredentialVerifier {\r\n    struct AcademicCredential {\r\n        string degreeType;\r\n        string institutionName;\r\n        uint256 dateOfIssuance;\r\n    }\r\n\r\n    mapping(address => AcademicCredential) public academicCredentials;\r\n\r\n    function addAcademicCredential(string memory _degreeType, string memory _institutionName, uint256 _dateOfIssuance) public {\r\n        AcademicCredential memory newCredential = AcademicCredential(_degreeType, _institutionName, _dateOfIssuance);\r\n        academicCredentials[msg.sender] = newCredential;\r\n    }\r\n\r\n    function getAcademicCredential(address _address) public view returns (string memory, string memory, uint256) {\r\n        AcademicCredential memory credential = academicCredentials[_address];\r\n        return (credential.degreeType, credential.institutionName, credential.dateOfIssuance);\r\n    }\r\n\r\n    function verifyAcademicCredential(address _address) public view returns (bool) {\r\n        return academicCredentials[_address].dateOfIssuance != 0;\r\n    }\r\n}\r\n",
  "sourcePath": "D:/TestCode/BDA/contracts/CredentialVerifier.sol",
  "compiler": {
    "name": "solc",
    "version": "0.5.16+commit.9c3226ce.Emscripten.clang"
  },
  "schemaVersion": "3.4.1",
  "updatedAt": "2024-05-13T21:08:54.360Z",
  "devdoc": {
    "methods": {}
  },
  "userdoc": {
    "methods": {}
  }
}